{
  "contractName": "utb_sender",
  "abi": [
    {
      "inputs": [],
      "stateMutability": "nonpayable",
      "type": "constructor"
    },
    {
      "inputs": [],
      "name": "master_wallet",
      "outputs": [
        {
          "internalType": "address",
          "name": "",
          "type": "address"
        }
      ],
      "stateMutability": "view",
      "type": "function",
      "constant": true
    },
    {
      "inputs": [],
      "name": "owner",
      "outputs": [
        {
          "internalType": "address",
          "name": "",
          "type": "address"
        }
      ],
      "stateMutability": "view",
      "type": "function",
      "constant": true
    },
    {
      "inputs": [],
      "name": "get_master_wallet",
      "outputs": [
        {
          "internalType": "address",
          "name": "",
          "type": "address"
        }
      ],
      "stateMutability": "view",
      "type": "function",
      "constant": true
    },
    {
      "inputs": [],
      "name": "get_master_wallet_open",
      "outputs": [
        {
          "internalType": "address",
          "name": "",
          "type": "address"
        }
      ],
      "stateMutability": "view",
      "type": "function",
      "constant": true
    },
    {
      "inputs": [],
      "name": "get_sender_wallet",
      "outputs": [
        {
          "internalType": "address",
          "name": "",
          "type": "address"
        }
      ],
      "stateMutability": "view",
      "type": "function",
      "constant": true
    },
    {
      "inputs": [
        {
          "internalType": "address",
          "name": "new_master_wallet",
          "type": "address"
        }
      ],
      "name": "set_master_wallet",
      "outputs": [
        {
          "internalType": "address",
          "name": "",
          "type": "address"
        }
      ],
      "stateMutability": "nonpayable",
      "type": "function"
    },
    {
      "inputs": [
        {
          "internalType": "uint256",
          "name": "client_amount",
          "type": "uint256"
        },
        {
          "internalType": "address",
          "name": "client_address",
          "type": "address"
        }
      ],
      "name": "transfer_amount",
      "outputs": [
        {
          "internalType": "uint256",
          "name": "",
          "type": "uint256"
        }
      ],
      "stateMutability": "payable",
      "type": "function",
      "payable": true
    }
  ],
  "bytecode": "0x608060405234801561001057600080fd5b50336000806101000a81548173ffffffffffffffffffffffffffffffffffffffff021916908373ffffffffffffffffffffffffffffffffffffffff16021790555033600160006101000a81548173ffffffffffffffffffffffffffffffffffffffff021916908373ffffffffffffffffffffffffffffffffffffffff16021790555061073c806100a16000396000f3fe6080604052600436106100705760003560e01c8063c182f7331161004e578063c182f733146100f6578063d041655214610133578063db82edb014610163578063eac7985c1461018e57610070565b8063415b6c2914610075578063475f47aa146100a05780638da5cb5b146100cb575b600080fd5b34801561008157600080fd5b5061008a6101b9565b604051610097919061057e565b60405180910390f35b3480156100ac57600080fd5b506100b56101c1565b6040516100c2919061057e565b60405180910390f35b3480156100d757600080fd5b506100e06101e7565b6040516100ed919061057e565b60405180910390f35b34801561010257600080fd5b5061011d600480360381019061011891906104d0565b61020b565b60405161012a919061057e565b60405180910390f35b61014d600480360381019061014891906104fd565b6102e5565b60405161015a91906105b9565b60405180910390f35b34801561016f57600080fd5b506101786103c3565b604051610185919061057e565b60405180910390f35b34801561019a57600080fd5b506101a361047c565b6040516101b0919061057e565b60405180910390f35b600033905090565b600160009054906101000a900473ffffffffffffffffffffffffffffffffffffffff1681565b60008054906101000a900473ffffffffffffffffffffffffffffffffffffffff1681565b60008060009054906101000a900473ffffffffffffffffffffffffffffffffffffffff1673ffffffffffffffffffffffffffffffffffffffff163373ffffffffffffffffffffffffffffffffffffffff161461029c576040517f08c379a000000000000000000000000000000000000000000000000000000000815260040161029390610599565b60405180910390fd5b81600160006101000a81548173ffffffffffffffffffffffffffffffffffffffff021916908373ffffffffffffffffffffffffffffffffffffffff160217905550819050919050565b600080349050838110156102f857600080fd5b6000848261030691906105e5565b90508373ffffffffffffffffffffffffffffffffffffffff166108fc869081150290604051600060405180830381858888f1935050505015801561034e573d6000803e3d6000fd5b50600160009054906101000a900473ffffffffffffffffffffffffffffffffffffffff1673ffffffffffffffffffffffffffffffffffffffff166108fc829081150290604051600060405180830381858888f193505050501580156103b7573d6000803e3d6000fd5b50809250505092915050565b60008060009054906101000a900473ffffffffffffffffffffffffffffffffffffffff1673ffffffffffffffffffffffffffffffffffffffff163373ffffffffffffffffffffffffffffffffffffffff1614610454576040517f08c379a000000000000000000000000000000000000000000000000000000000815260040161044b90610599565b60405180910390fd5b600160009054906101000a900473ffffffffffffffffffffffffffffffffffffffff16905090565b6000600160009054906101000a900473ffffffffffffffffffffffffffffffffffffffff16905090565b6000813590506104b5816106d8565b92915050565b6000813590506104ca816106ef565b92915050565b6000602082840312156104e6576104e5610684565b5b60006104f4848285016104a6565b91505092915050565b6000806040838503121561051457610513610684565b5b6000610522858286016104bb565b9250506020610533858286016104a6565b9150509250929050565b61054681610619565b82525050565b60006105596033836105d4565b915061056482610689565b604082019050919050565b6105788161064b565b82525050565b6000602082019050610593600083018461053d565b92915050565b600060208201905081810360008301526105b28161054c565b9050919050565b60006020820190506105ce600083018461056f565b92915050565b600082825260208201905092915050565b60006105f08261064b565b91506105fb8361064b565b92508282101561060e5761060d610655565b5b828203905092915050565b60006106248261062b565b9050919050565b600073ffffffffffffffffffffffffffffffffffffffff82169050919050565b6000819050919050565b7f4e487b7100000000000000000000000000000000000000000000000000000000600052601160045260246000fd5b600080fd5b7f546869732066756e6374696f6e206973207265737472696374656420746f207460008201527f686520636f6e74726163742773206f776e657200000000000000000000000000602082015250565b6106e181610619565b81146106ec57600080fd5b50565b6106f88161064b565b811461070357600080fd5b5056fea2646970667358221220e3a6708ea672e532ce95a624272c5176127974a41194aedf5a708e367e800bff64736f6c63430008060033",
  "immutableReferences": {},
  "source": "pragma solidity >=0.8.0;\r\n\r\ncontract utb_sender {\r\n    address public owner;\r\n    address public master_wallet;\r\n\r\n    modifier restricted() {\r\n        require(\r\n            msg.sender == owner,\r\n            \"This function is restricted to the contract's owner\"\r\n        );\r\n        _;\r\n    }\r\n\r\n    constructor() {\r\n        owner = msg.sender;\r\n        master_wallet = msg.sender;\r\n    }\r\n\r\n    function get_master_wallet() public view restricted returns (address) {\r\n        return master_wallet;\r\n    }\r\n\r\n    function get_master_wallet_open() public view returns (address) {\r\n        return master_wallet;\r\n    }\r\n\r\n    function get_sender_wallet() public view returns (address) {\r\n        return msg.sender;\r\n    }\r\n\r\n    function set_master_wallet(address new_master_wallet)\r\n        public\r\n        restricted\r\n        returns (address)\r\n    {\r\n        master_wallet = new_master_wallet;\r\n        return new_master_wallet;\r\n    }\r\n\r\n    function transfer_amount(uint256 client_amount, address client_address)\r\n        public\r\n        payable\r\n        returns (uint256)\r\n    {\r\n        uint256 total_amount = msg.value;\r\n        if (total_amount < client_amount) revert();\r\n\r\n        uint256 remain_amount = total_amount - client_amount;\r\n        payable(client_address).transfer(client_amount);\r\n        payable(master_wallet).transfer(remain_amount);\r\n        return remain_amount;\r\n    }\r\n}\r\n",
  "sourcePath": "C:/-PROJECTS/ETHNode/nodejs-projects/Test3/contract/contracts/utb_sender.sol",
  "compiler": {
    "name": "solc",
    "version": "0.8.6+commit.11564f7e.Emscripten.clang"
  },
  "schemaVersion": "3.4.1",
  "updatedAt": "2021-07-02T00:20:48.122Z",
  "networkType": "ethereum",
  "devdoc": {
    "kind": "dev",
    "methods": {},
    "version": 1
  },
  "userdoc": {
    "kind": "user",
    "methods": {},
    "version": 1
  }
}